:100000000C94EA000C9407010C9407010C9407016E
:100010000C9407010C9407010C9407010C94070140
:100020000C9407010C9407010C9407010C94070130
:100030000C9407010C9407010C9407010C94070120
:100040000C9407010C9407010C9407010C94070110
:100050000C942B040C9457040C9407010C94070186
:100060000C9407010C9407010C9407010C940701F0
:1000700054656D702046203D20252E326600546563
:100080006D702043203D20252E3366002054656D81
:1000900070657261747572652053656E736F72005E
:1000A000526561642066726F6D20636C6F636B3A9A
:1000B0000054657374696E6720556172742E2E2E1C
:1000C0000054657374696E6720556172742E2E2E0C
:1000D000006E616E00696E660000407A10F35A008F
:1000E000A0724E18090010A5D4E80000E876481761
:1000F0000000E40B54020000CA9A3B000000E1F546
:1001000005000080969800000040420F000000A00B
:100110008601000000102700000000E80300000036
:10012000006400000000000A000000000001000060
:100130000000002C76D888DC674F0823DFC1DFAED3
:1001400059E1B1B796E5E3E453C63AE6519976969C
:10015000E8E6C28426EB898C9B62ED407C6FFCEF65
:10016000BC9C9F40F2BAA56FA5F490055A2AF75C93
:10017000936B6CF9676DC11BFCE0E40D47FEF52045
:10018000E6B500D0ED902E0300943577050080840D
:100190001E080000204E0A000000C80C3333333321
:1001A0000F986E12831141EF8D2114893BE655168D
:1001B000CFFEE6DB18D1844B381BF77C1D901DA4C5
:1001C000BBE424203284725E228100C9F124ECA1B8
:1001D000E53D270011241FBECFEFD0E1DEBFCDBF2C
:1001E00011E0A0E0B1E0E2E8F8E102C005900D9274
:1001F000AE30B107D9F711E0AEE0B1E001C01D9219
:10020000A137B107E1F70E9452020C943F0C0C9405
:100210000000CF92DF92EF92FF920F931F9380E93D
:100220000E94D20381E50E9405048EEE92E028EC44
:1002300030E0F9013197F1F70197D9F780E90E9491
:10024000FA038AEA0E94050481E90E94FA030E94E7
:100250001704809354010E9421048093530140911C
:100260005401282F30E047FF0EC0942F80E0280F64
:10027000391FB901882777FD8095982F605070400D
:100280008140904009C0942F80E0280F391FB901A8
:10029000882777FD8095982F0E943F0920E030E065
:1002A00040E85BE30E94CB0960936D0170936E019F
:1002B00080936F0190937001E0906D01F0906E015A
:1002C00000916F0110917001C801B70120E030E08A
:1002D00040E151E40E94CB0920E030E040EA50E4E4
:1002E0000E94D50820E030E040E052E40E9471080E
:1002F0006093690170936A0180936B0190936C0124
:100300008DB79EB708970FB6F8949EBF0FBE8DBFEE
:10031000EDB7FEB7319680E0C82E81E0D82EADB79C
:10032000BEB71296DC92CE9211978EE790E093833F
:100330008283E482F582068317830E94740B8DB753
:100340009EB708960FB6F8949EBF0FBE8DBF81E48E
:100350000E94F602ADB7BEB718970FB6F894BEBFAD
:100360000FBEADBFEDB7FEB731961296DC92CE92BE
:10037000119780E790E09383828380916901909147
:100380006A01A0916B01B0916C0184839583A6836F
:10039000B7830E94740B8DB79EB708960FB6F8947A
:1003A0009EBF0FBE8DBF1F910F91FF90EF90DF900A
:1003B000CF9008950F931F93DF93CF93CDB7DEB700
:1003C0002A970FB6F894DEBF0FBECDBF80ED0E9416
:1003D000D20387E00E94050481ED0E94FA030E9487
:1003E0002104182F0E94F202812F90E08E010F5FEE
:1003F0001F4FB80142E050E00E94530B80EA90E0AA
:100400000E94D00281E40E94F602C8010E94DE022E
:100410002A960FB6F894DEBF0FBECDBFCF91DF9105
:100420001F910F9108950F931F93DF93CF93CDB733
:10043000DEB72A970FB6F894DEBF0FBECDBF0E947D
:10044000F2028CE890E00E94D00280E90E94D20380
:100450008CEA0E94050481E90E94FA030E942104AB
:10046000182F81E40E94F602812F90E08E010F5F29
:100470001F4FB80142E050E00E94530BC8010E9498
:10048000DE0284E50E94F6028EE30E94CC022A96E8
:100490000FB6F894DEBF0FBECDBFCF91DF911F9195
:1004A0000F910895CF93DF938FEF8AB984B981E0DC
:1004B00085B90E94FA020E94A60380E096E90E9494
:1004C000810481EC90E00E94DB040E94F2020E9411
:1004D000DA01C8ECD0E081EB90E00E94DB048EE30F
:1004E0000E94B80480E197E2FE013197F1F701978D
:1004F000D9F7F1CF662311F0109A01C0109887FF49
:1005000002C0169A01C01698982F86FF02C0159A4D
:1005100001C0159895FF02C0149A01C0149894FF69
:1005200002C0139A01C013980000129A00C000C0C4
:10053000129893FF02C0169A01C0169892FF02C04B
:10054000159A01C0159891FF02C0149A01C0149821
:1005500090FF02C0139A01C013980000129A00C0C5
:1005600000C01298169A159A149A139A662349F4A1
:10057000843038F48FEC9CE00197F1F700C0000064
:1005800008959AE69A95F1F700C0089561E00E94F7
:100590007A0280E090E0089561E00E947A02089576
:1005A000CF93DF93EC0102C00E94CC02FE012196A2
:1005B00084918823C9F7DF91CF910895CF93DF937A
:1005C000EC0102C00E94CC0289918823D9F7DF9107
:1005D000CF91089560E00E947A02089582E00E941F
:1005E000EA02089581E00E94EA02089580580E947C
:1005F000EA0208950A9A089A099A0E9A0D9A0C9A94
:100600000B9A129810981198169A159A149A139A90
:100610008FE295E70197F1F700C000001698159852
:100620000000129A00C000C0129887E090E2019783
:10063000F1F700C00000129A00C000C0129887ECC9
:1006400090E00197F1F700C00000129A00C000C0CE
:1006500012989AE69A95F1F700C013980000129A42
:1006600000C000C012988AE68A95F1F700C013987E
:100670000000129A00C000C0129800C000C0169A74
:100680000000129A00C000C012989AE69A95F1F7FD
:1006900000C088E00E94EA020E94F20286E00E9406
:1006A000EA028CE00E94EA020895109A119A0E98CC
:1006B0000D980C980B98129A00C000C0039902C0C4
:1006C00020E001C020E1049902C0E0E001C0E0E2C6
:1006D000059902C070E001C070E4069902C060E0B4
:1006E00001C060E8129800C000C0129A00C000C0AB
:1006F00080B1049902C050E001C052E0059902C0E7
:1007000040E001C044E0069902C030E001C038E09A
:1007100012980E9A0D9A0C9A0B9A169A159A149A88
:10072000139A11989AE69A95F1F700C090E0F3E0D9
:1007300096958795FA95E1F78170282B2E2B272B1C
:10074000262B252B242B822F832B08951092B90062
:100750008CE08093B8000895982F84EA8093BC00C1
:100760008091BC0087FFFCCF8091B900887F8830E2
:1007700021F0803111F081E008959093BB0084E86E
:100780008093BC008091BC0087FFFCCF9091B900A2
:10079000987F983111F480E0089580E0903409F05A
:1007A00081E00895982F44EA34E824E94093BC009E
:1007B0008091BC0087FFFCCF8091B900887F883092
:1007C00011F0803199F79093BB003093BC00809179
:1007D000BC0087FFFCCF8091B900887F803211F088
:1007E000883539F42093BC008091BC0084FDFCCF97
:1007F000DDCF08950E94AC03089584E98093BC0086
:100800008091BC0084FDFCCF08958093BB0084E8F8
:100810008093BC008091BC0087FFFCCF8091B90021
:1008200090E0887F883209F091E0892F089584EC68
:100830008093BC008091BC0087FFFCCF8091BB00FF
:10084000089584E88093BC008091BC0087FFFCCFB2
:100850008091BB0008951F920F920FB60F92112442
:100860002F938F939F93EF93FF939091C0002091CC
:10087000C600E0915001EF5FEF7180915101E817E0
:1008800011F482E008C0892F8871E0935001F0E0F4
:10089000E25DFE4F208380935201FF91EF919F9183
:1008A0008F912F910F900FBE0F901F9018951F9250
:1008B0000F920FB60F9211248F939F93EF93FF9394
:1008C00090914E0180914F01981769F0E0914F018E
:1008D000EF5FEF71E0934F01F0E0E25FFE4F808148
:1008E0008093C60005C08091C1008F7D8093C100B8
:1008F000FF91EF919F918F910F900FBE0F901F90DE
:1009000018959C0110924E0110924F0110925001C7
:100910001092510197FF04C082E08093C0003F779E
:100920003093C5002093C40088E98093C10086E01D
:100930008093C200089590915001809151019817C1
:1009400019F420E031E012C0E0915101EF5FEF7146
:10095000E0935101F0E0E25DFE4F308120915201C1
:10096000922F80E0AC01430F511D9A01C9010895F7
:10097000282F90914E019F5F9F7180914F01981792
:10098000E1F3E92FF0E0E25FFE4F208390934E0108
:100990008091C10080628093C1000895CF93DF935E
:1009A000EC0103C021960E94B80488818823D1F706
:1009B000DF91CF910895CF93DF93EC0102C00E94A5
:1009C000B804FE01219684918823C9F7DF91CF9165
:1009D0000895A1E1B0E0EFEEF4E00C942E0A3C01A2
:1009E0007F876E876A01FC0117821682838181FDF1
:1009F00003C06FEF7FEF6FC39E012F5F3F4F398BB7
:100A0000288BF3012381EE85FF8523FD859123FF4C
:100A10008191FF87EE87882309F45AC3853251F408
:100A2000EE85FF8523FD859123FF8191FF87EE876A
:100A3000853229F490E0B3010E94910BE2CF982F08
:100A400010E0882499241032B0F49B3269F09C3273
:100A500028F4903251F0933271F40BC09D3239F08A
:100A6000903349F4116028C01260146025C01860EA
:100A700023C0106121C017FD2AC0892F80538A30FE
:100A800078F416FF06C0FAE09F9E902C1124980E71
:100A900013C03AE0839E802C1124880E10620CC093
:100AA0009E3221F416FD14C3106406C09C3611F466
:100AB000106802C0983659F4EE85FF8523FD9591A4
:100AC00023FF9191FF87EE87992309F0BCCF892FEF
:100AD0008554833020F4812F8061905E07C0892F78
:100AE0008556833008F09FC1812F8F7E86FD02C01E
:100AF00076E0972E6FE3F62EF822953619F4F0E49F
:100B0000FF2A07C0963619F420E8F22A02C0911095
:100B10009A94F7FE0AC03BE3391518F45CE3B52E4E
:100B200002C0B92CB39427E009C047E0491520F46E
:100B3000BB2447E0942EF7CF292DBB24C601049691
:100B40009D878C87F6016081718182819381AE01DE
:100B50004F5F5F4F0B2D0E94650A6C010981202EAB
:100B6000332400FF04C003FD02C01DE209C0F1FEF2
:100B700002C01BE205C0F2FC02C010E001C010E29E
:100B8000C1018C709070892BB9F1112311F483E0AD
:100B900001C084E0881510F088240AC0881AF3FC8C
:100BA00007C080E290E0B3010E94910B8A94C9F7DC
:100BB000112329F0812F90E0B3010E94910B23FEB5
:100BC00003C001ED10E00EC005ED10E00BC0E11414
:100BD000F10409F0805290E0B3010E94910B0F5F85
:100BE0001F4F05C0EF2CFF24F0E1EF22FF24F80196
:100BF0008491882361F714C1F7FE12C0BC0C24FE57
:100C000004C08A81813309F4BA941B141CF0BB24FC
:100C1000B3942DC0F8E0FB1550F538E0B32E27C093
:100C2000F6FC25C0892D90E08C159D054CF02CEF2D
:100C3000C2162FEFD20624F030E8F32A01C09A94AE
:100C4000992049F0E2E0F0E0EC0FFD1FE90DF11D05
:100C500080818033A1F3F7FE0AC0B92CB394892DAB
:100C600090E0C816D90614F0992401C09C18F7FC2E
:100C700003C025E030E009C01C141D041CF021E075
:100C800030E003C096012F5F3F4F112311F02F5F1B
:100C90003F4F992029F0892D90E00196280F391FA8
:100CA000882D90E02817390714F0882401C0821A93
:100CB0004F2C5524C20189709070892B39F008C0DF
:100CC00080E290E0B3010E94910B8A948820C1F7E2
:100CD000112329F0812F90E0B3010E94910B43FE74
:100CE00007C008C080E390E0B3010E94910B8A9492
:100CF0008820C1F7F7FE46C08601D7FE02C000E09B
:100D000010E076010894E11CF11CE01AF10A41E0C0
:100D100050E04C0F5D1FE40EF51E26014B185108E4
:100D2000892D90E0AA24BB24A81AB90A5FEF0F3FCF
:100D3000150729F48EE290E0B3010E94910BC016D2
:100D4000D10634F0401651061CF4F701808101C031
:100D500080E3015010400894E11CF11C0A151B05AA
:100D60002CF090E0B3010E94910BE0CF0C151D0513
:100D700039F49A81963318F4953311F424FE81E303
:100D800090E04BC08A81813309F00F7E90E0B3017F
:100D90000E94910B9920A1F08EE290E0B3010E9495
:100DA000910B12E0E1E0F0E0EC0FFD1FE10FF11D0F
:100DB0001F5F808190E0B3010E94910B9A9491F79C
:100DC00044FC03C085E690E002C085E490E0B301F6
:100DD0000E94910BD7FC05C0C114D10441F404FF5B
:100DE00006C0D094C194D108D3948DE201C08BE2A7
:100DF00090E0B3010E94910B80E305C08F5F26EF66
:100E00003FEFC20ED31E3AE0C316D104BCF790E008
:100E1000B3010E94910BC601C096B3010E94910BD1
:100E2000CC84DD8452C1933631F0933799F09335F9
:100E300009F059C023C0F601808189835E010894BE
:100E4000A11CB11C22E030E0C20ED31E21E0E22E34
:100E5000F12C12C0F601A080B18016FD03C06FEF27
:100E60007FEF02C0692D70E022E030E0C20ED31E99
:100E7000C5010E94480B7C011F7713C0F601A080BA
:100E8000B18016FD03C06FEF7FEF02C0692D70E0E7
:100E900022E030E0C20ED31EC5010E943D0B7C0152
:100EA000106813FF07C01BC080E290E0B3010E94EE
:100EB000910B8A94882D90E0E816F906A8F30FC0EC
:100EC000F50117FD859117FF81915F0190E0B30156
:100ED0000E94910B81108A940894E108F108E114B2
:100EE000F10471F7F2C0943611F0993689F517FFC5
:100EF00008C0F601208131814281538184E090E075
:100F00000AC0F601808191819C01442737FD4095FC
:100F1000542F82E090E0C80ED91E9FE6F92EF122F0
:100F200057FF09C050954095309521953F4F4F4F41
:100F30005F4F90E8F92ACA01B901AE014F5F5F4FD8
:100F40002AE030E00E94BD0BE82EE889EE1A41C08D
:100F5000953721F41F7E2AE030E01CC0197F9F36B0
:100F600061F0903720F4983509F0B2C00FC0903787
:100F700039F0983709F0ACC004C028E030E00AC06E
:100F8000106114FD146020E130E004C014FD16600F
:100F900020E132E017FF08C0F60160817181828193
:100FA000938144E050E008C0F60180819181BC014A
:100FB00080E090E042E050E0C40ED51EAE014F5FED
:100FC0005F4F0E94BD0BE82E5889E51A8FE7F82E77
:100FD000F122F6FE0BC08EEFF822E91438F4F4FE8D
:100FE00007C0F2FC05C09FEEF92202C01E2D01C011
:100FF000192DF4FE0DC0FE01EE0DF11D8081803330
:1010000019F4E9EEFE2208C01F5FF2FE05C003C01E
:101010008F2D867809F01F5F0F2DF3FC14C0F0FEB2
:101020000FC0181510F09E2C0BC09E2C980C911A16
:10103000182D06C080E290E0B3010E94910B1F5F63
:101040001815C0F304C0181510F4811A01C08824C3
:1010500004FF0FC080E390E0B3010E94910B02FFF8
:101060001DC001FD03C088E790E00EC088E590E058
:101070000BC0802F867891F001FF02C08BE201C087
:1010800080E2F7FC8DE290E0B3010E94910B06C074
:1010900080E390E0B3010E94910B9A94E914C0F3AD
:1010A000EA94E1E0F0E0EC0FFD1FEE0DF11D808110
:1010B00090E0B3010E94910BEE2091F706C080E210
:1010C00090E0B3010E94910B8A948820C1F799CCDB
:1010D000F30166817781CB016196E2E10C944A0AC3
:1010E0005058BB27AA270ED01CC10DD130F012D109
:1010F00020F031F49F3F11F41EF402C10EF4E0958C
:10110000E7FBF8C0E92F1ED180F3BA176207730717
:101110008407950718F071F49EF536C10EF4E0953A
:101120000B2EBA2FA02D0B01B90190010C01CA01A1
:10113000A0011124FF27591B99F0593F50F4503E4C
:1011400068F11A16F040A22F232F342F4427585F3E
:10115000F3CF469537952795A795F0405395C9F756
:101160007EF41F16BA0B620B730B840BBAF091500E
:10117000A1F0FF0FBB1F661F771F881FC2F70EC0AD
:10118000BA0F621F731F841F48F487957795679580
:10119000B795F7959E3F08F0B3CF9395880F08F069
:1011A0009927EE0F9795879508950CD0BAC0B2D0C5
:1011B00040F0A9D030F021F45F3F19F09BC05111ED
:1011C000E4C09EC0BFD098F39923C9F35523B1F36F
:1011D000951B550BBB27AA2762177307840738F0A6
:1011E0009F5F5F4F220F331F441FAA1FA9F333D005
:1011F0000E2E3AF0E0E830D091505040E695001CB9
:10120000CAF729D0FE2F27D0660F771F881FBB1F74
:10121000261737074807AB07B0E809F0BB0B802D4E
:10122000BF01FF2793585F4F2AF09E3F510568F09A
:1012300061C0ABC05F3FECF3983EDCF386957795D9
:101240006795B795F7959F5FC9F7880F911D96959C
:10125000879597F90895E1E0660F771F881FBB1FF8
:10126000621773078407BA0720F0621B730B840BA5
:10127000BA0BEE1F88F7E0950895E89409C097FB34
:101280003EF490958095709561957F4F8F4F9F4F5D
:101290009923A9F0F92F96E9BB279395F6958795A1
:1012A00077956795B795F111F8CFFAF4BB0F11F464
:1012B00060FF1BC06F5F7F4F8F4F9F4F16C088230B
:1012C00011F096E911C0772321F09EE8872F762F41
:1012D00005C0662371F096E8862F70E060E02AF082
:1012E0009A95660F771F881FDAF7880F969587956E
:1012F00097F9089597F99F6780E870E060E0089596
:101300009FEF80EC089500240A941616170618061D
:101310000906089500240A941216130614060506F9
:101320000895092E0394000C11F4882352F0BB0F8A
:1013300040F4BF2B11F460FF04C06F5F7F4F8F4FED
:101340009F4F089557FD9058440F551F59F05F3F28
:1013500071F04795880F97FB991F61F09F3F79F0D7
:1013600087950895121613061406551FF2CF469559
:10137000F1DF08C0161617061806991FF1CF8695DB
:101380007105610508940895E894BB2766277727BF
:10139000CB0197F908950BD0C4CFB5DF28F0BADFA1
:1013A00018F0952309F0A6CFABCF1124EECFCADFFA
:1013B000A0F3959FD1F3950F50E0551F629FF00168
:1013C000729FBB27F00DB11D639FAA27F00DB11DC1
:1013D000AA1F649F6627B00DA11D661F829F22274A
:1013E000B00DA11D621F739FB00DA11D621F839FD1
:1013F000A00D611D221F749F3327A00D611D231FA7
:10140000849F600D211D822F762F6A2F11249F57F4
:1014100050408AF0E1F088234AF0EE0FFF1FBB1F17
:10142000661F771F881F91505040A9F79E3F5105B6
:1014300070F060CFAACF5F3FECF3983EDCF3869567
:1014400077956795B795F795E7959F5FC1F7FE2B61
:10145000880F911D9695879597F908952F923F9241
:101460004F925F926F927F928F929F92AF92BF92B4
:10147000CF92DF92EF92FF920F931F93CF93DF9360
:10148000CDB7DEB7CA1BDB0B0FB6F894DEBF0FBEBD
:10149000CDBF09942A88398848885F846E847D840A
:1014A0008C849B84AA84B984C884DF80EE80FD800C
:1014B0000C811B81AA81B981CE0FD11D0FB6F89482
:1014C000DEBF0FBECDBFED010895283008F027E044
:1014D0003327DA01990F311D87FD91600096610570
:1014E000710539F432602E5F3D9330E32A95E1F7C0
:1014F00008959F3F30F080387105610509F03C5F29
:101500003C5F3D93913008F08068911DDF93CF934D
:101510001F930F93FF92EF92192F987F9695E92FC3
:1015200096959695E90FFF27ED5CFE4F9927332797
:10153000EE24FF24A701E70105900894079428F4FE
:10154000360FE71EF81E491F511D660F771F881FB3
:10155000991F0694A1F70590079428F4E70EF81E4A
:10156000491F561FC11D770F881F991F661F0694BC
:10157000A1F70590079428F4F80E491F561FC71FBE
:10158000D11D880F991F661F771F0694A1F705903C
:10159000079420F4490F561FC71FD81F990F661FC5
:1015A000771F881F0694A9F784911095177041F052
:1015B000D695C79557954795F794E7941A95C1F72F
:1015C000E9EDF0E06894159015913591659195914C
:1015D00005907FE27395E118F10A430B560BC90B96
:1015E000D009C0F7E10CF11E431F561FC91FD01DC3
:1015F0007EF4703311F48A95E6CFE894015030F010
:10160000080F0AF40027021708F4202F2395022F51
:101610007A3328F079E37D932A95E9F710C07D931A
:101620002A9589F606949795679537951795179497
:10163000E118F10A430B560BC90BD00998F023951A
:101640007E9173957A3308F070E37C932013B8F79A
:101650007E9170617D9330F0839571E37D9370E3AB
:101660002A95E1F71124EF90FF900F911F91CF91F0
:10167000DF91992787FD90950895FC0105906150B1
:1016800070400110D8F7809590958E0F9F1F089598
:10169000FC016150704001900110D8F78095909541
:1016A0008E0F9F1F0895FB019F01E8944230C4F004
:1016B0004532B4F44A3029F497FB1EF49095819595
:1016C0009F4F642F77270E942B0C805D8A330CF08C
:1016D000895D8193CB010097A1F716F45DE25193E8
:1016E0001082C9010C941B0CA0E0B0E0EAE7FBE01B
:1016F0000C943C0A0F8118859E01255F3F4FF8012D
:10170000838188608383C80169857A85A9010E94E5
:10171000E904F8012381277F23832096E4E00C94D9
:10172000580A0F931F93CF93DF938C01EB018B81AA
:1017300081FF1BC082FF0DC02E813F818C819D8166
:101740002817390764F4E881F9810193F983E88364
:1017500006C0E885F985802F0995892B31F48E81A3
:101760009F8101969F838E8302C00FEF1FEFC801F8
:10177000DF91CF911F910F910895FA01AA27283088
:1017800051F1203181F1E8946F936E7F6E5F7F4F4E
:101790008F4F9F4FAF4FB1E03ED0B4E03CD0670FCA
:1017A000781F891F9A1FA11D680F791F8A1F911D1D
:1017B000A11D6A0F711D811D911DA11D20D009F46D
:1017C00068943F912AE0269F11243019305D3193AF
:1017D000DEF6CF010895462F4770405D4193B3E098
:1017E0000FD0C9F7F6CF462F4F70405D4A3318F03F
:1017F000495D31FD4052419302D0A9F7EACFB4E0F0
:10180000A6959795879577956795BA95C9F70097A7
:101810006105710508959B01AC010A2E0694579548
:10182000479537952795BA95C9F7620F731F841F9F
:10183000951FA01D0895DC01FC01672F719177238E
:10184000E1F7329704C07C916D9370836291AE177B
:10185000BF07C8F30895AA1BBB1B51E107C0AA1F0D
:10186000BB1FA617B70710F0A61BB70B881F991F41
:101870005A95A9F780959095BC01CD010895F894EB
:02188000FFCF98
:0E1882000000000200000000C602000000008E
:00000001FF
